:020000040000FA
:060000008A110A12052816
:04000600003400348E
:06000A008A110A12892090
:10001000F001F101F201831203138C1E08288312F0
:1000200003131A08F00083120313990083120313B9
:100030000C1E18283130F00283120313031C082809
:100040000930F0028312031303180828F007700820
:10005000F2003C30F10001307202031C6E2870087F
:10006000F2003830F10002307202031C6E28700872
:10007000F2003530F10003307202031C6E28700864
:10008000F2003230F10004307202031C6E28700856
:10009000F2002F30F10005307202031C6E28700848
:1000A000F2002C30F10006307202031C6E2870083A
:1000B000F2002830F10007307202031C6E2870082D
:1000C000F2002430F10008307202031C6E28700820
:1000D000F2002030F10009307202031C710883160F
:1000E000031392000310120C831203139500831262
:1000F0000313121580208312031312118020082885
:100100003D308312031381080B1164000B1D8528F9
:100110000800831603130730810040308312031355
:100120008500FF308316031788003F3083160313C2
:10013000850083160317890120308312031386007C
:10014000DF308316031386001F30831603139500D8
:10015000831203138701FB30831603138700831276
:1001600003138801F03083160313880083120313EE
:1001700089018B018312031303309200831203134E
:100180000C30970083160313243098008316031352
:1001900019309900831603178701831203139030D7
:0401A00098000800BB
:02400E00F42C90
:00000001FF
